{
  "_format": "hh-sol-artifact-1",
  "contractName": "CallRevert",
  "sourceName": "contracts/CallRevert.sol",
  "abi": [
    {
      "inputs": [
        {
          "internalType": "uint256",
          "name": "_speedPercent",
          "type": "uint256"
        }
      ],
      "name": "Start",
      "outputs": [],
      "stateMutability": "nonpayable",
      "type": "function"
    }
  ],
  "bytecode": "0x608060405234801561001057600080fd5b5060ff8061001f6000396000f3fe6080604052348015600f57600080fd5b506004361060285760003560e01c8063f06a29c914602d575b600080fd5b603c603836600460b1565b603e565b005b606481111560ac576040517f08c379a000000000000000000000000000000000000000000000000000000000815260206004820152600d60248201527f737065656420696e76616c696400000000000000000000000000000000000000604482015260640160405180910390fd5b600055565b60006020828403121560c257600080fd5b503591905056fea26469706673582212205639f4681319d4661d31a9631cfd0f0899a73d664c9d4a4717c0011aa8ce285864736f6c63430008090033",
  "linkReferences": {},
  "deployedLinkReferences": {}
}